:100000000C945D000C9485000C9485000C94850084
:100010000C9485000C9485000C9485000C9485004C
:100020000C9485000C9485000C9485000C9485003C
:100030000C9485000C9485000C9485000C9485002C
:100040000C9404030C9485000C9474030C944E03DC
:100050000C9485000C9485000C9485000C9485000C
:100060000C9485000C94850000000008000201003B
:100070000003040700000000000000000000000072
:10008000250028002B0000000000240027002A0083
:10009000040404040404040402020202020203032E
:1000A0000303030301020408102040800102040836
:1000B0001020010204081020C50311241FBECFEF39
:1000C000D8E0DEBFCDBF11E0A0E0B1E0E6E8FBE0A4
:1000D00002C005900D92AA33B107D9F722E0AAE336
:1000E000B1E001C01D92AC33B207E1F710E0CDE5FD
:1000F000D0E004C02197FE010E94B605CC35D1079F
:10010000C9F70E947A040C94C1050C94000090E099
:10011000FC01E859FF4F2491FC01EC55FF4F34914D
:10012000FC01E057FF4FE491EE2309F43CC0222389
:1001300039F1233091F038F42130A9F0223001F563
:1001400084B58F7D12C0273091F02830A1F0243083
:10015000B9F4809180008F7D03C0809180008F77FB
:10016000809380000DC084B58F7784BD09C08091D5
:10017000B0008F7703C08091B0008F7D8093B00076
:10018000F0E0EE0FFF1FE458FF4FA591B4919FB729
:10019000F894611104C08C913095382302C0EC9121
:1001A0003E2B3C939FBF08953FB7F8948091430145
:1001B00090914401A0914501B091460126B5A89BBC
:1001C00005C02F3F19F00196A11DB11D3FBFBA2FE9
:1001D000A92F982F8827820F911DA11DB11DBC0149
:1001E000CD0142E0660F771F881F991F4A95D1F70E
:1001F00008958F929F92AF92BF92CF92DF92EF922B
:10020000FF926B017C010E94D4004B015C01C11480
:10021000D104E104F104F1F00E94D400DC01CB012F
:1002200088199909AA09BB09883E9340A105B1051F
:1002300070F321E0C21AD108E108F10888EE880EB7
:1002400083E0981EA11CB11CC114D104E104F10487
:1002500019F7DDCFFF90EF90DF90CF90BF90AF9078
:100260009F908F900895CF92DF92EF92FF920F931D
:100270001F93CF93DF936C017A018B01C0E0D0E034
:10028000CE15DF0581F0D8016D918D01D601ED917C
:10029000FC910190F081E02DC6010995892B11F0A8
:1002A0002196EECF7E01C701DF91CF911F910F9173
:1002B000FF90EF90DF90CF900895089580E090E058
:1002C0000895FC01538D448D252F30E0842F90E05C
:1002D000821B930B541710F0CF9608950197089541
:1002E000FC01918D828D981761F0828DDF01A80F3E
:1002F000B11D5D968C91928D9F5F9F73928F90E060
:1003000008958FEF9FEF0895FC01918D828D9817CE
:1003100031F0828DE80FF11D858D90E008958FEF0B
:100320009FEF0895FC01918D228D892F90E0805CD4
:100330009F4F821B91098F739927089587E491E05D
:100340000E94920121E0892B09F420E0822F089578
:10035000FC01848DDF01A80FB11DA35ABF4F2C9162
:10036000848D90E001968F739927848FA689B78931
:100370002C93A089B1898C91837080648C93938D28
:10038000848D981306C00288F389E02D80818F7DCB
:1003900080830895EF92FF920F931F93CF93DF9383
:1003A000EC0181E0888F9B8D8C8D981305C0E889C6
:1003B000F989808185FD26C0F62E0B8D10E00F5F38
:1003C0001F4F0F731127E02E8C8DE8120CC00FB653
:1003D00007FCFACFE889F989808185FFF5CFCE0146
:1003E0000E94A801F1CF8B8DFE01E80FF11DE35AA9
:1003F000FF4FF0829FB7F8940B8FEA89FB898081C9
:1004000080620AC09FB7F894EE89FF896083E8890B
:10041000F98980818370806480839FBF81E090E050
:10042000DF91CF911F910F91FF90EF900895CF939F
:10043000DF93EC01888D8823C9F0EA89FB898081EC
:1004400085FD05C0A889B9898C9186FD0FC00FB6BE
:1004500007FCF5CF808185FFF2CFA889B9898C91FF
:1004600085FFEDCFCE010E94A801E7CFDF91CF91AC
:10047000089580E090E0892B29F00E949E0181116F
:100480000C9400000895AF92BF92CF92DF92EF924A
:10049000FF920F931F93CF93DF9300D0CDB7DEB7BA
:1004A00069834A83880F991F00913A0210913B0299
:1004B000000F111FE4EEF1E09F01245E3140201790
:1004C000310714F41192F8CF2981FC01EC51FE4F51
:1004D00021838A81808360E0809138020E948700B6
:1004E0001016110634F501501109F801EC51FE4FB8
:1004F000C080B0903602A090340287E0E82EF12C44
:10050000D12CB6010E2C02C0759567950A94E2F7BE
:1005100061708A2D0E94870061E08B2D0E94870008
:1005200060E08B2D0E94870081E0E81AF10848F70F
:10053000D7CF61E0809138020F900F90DF91CF917B
:100540001F910F91FF90EF90DF90CF90BF90AF90F1
:100550000C948700EF92FF920F931F93CF937C012F
:100560008C0183E0000F111F8A95E1F70C501E4F9C
:10057000C1E0F80111928F0140E06C2FC7010E9489
:100580004302CF5FC930A9F7CF911F910F91FF9020
:10059000EF90089597FD0EC020913A0230913B02F2
:1005A000821793073CF46031710520F4462F6AE00E
:1005B0000C9443020895EF92FF920F931F93CF93F1
:1005C0007C0104EE11E0C1E080913A0290913B027F
:1005D000181619064CF4F7014081F801408B6C2F76
:1005E00080E090E00E944302FFEFEF1AFF0A0F5FE6
:1005F0001F4FCF5FC93041F7CF911F910F91FF90EF
:10060000EF9008950E94BC051F920F920FB60F92B3
:1006100011242F933F938F939F93AF93BF93809118
:100620003F0190914001A0914101B0914201309170
:100630003E0123E0230F2D3720F40196A11DB11DAB
:1006400005C026E8230F0296A11DB11D20933E018F
:1006500080933F0190934001A0934101B0934201E8
:100660008091430190914401A0914501B0914601D0
:100670000196A11DB11D8093430190934401A09365
:100680004501B0934601BF91AF919F918F913F91EA
:100690002F910F900FBE0F901F9018951F920F92E1
:1006A0000FB60F9211242F933F934F935F936F9345
:1006B0007F938F939F93AF93BF93EF93FF9387E4C1
:1006C00091E00E94A801FF91EF91BF91AF919F919E
:1006D0008F917F916F915F914F913F912F910F90EB
:1006E0000FBE0F901F9018951F920F920FB60F928A
:1006F00011242F938F939F93EF93FF93E0915701D2
:10070000F09158018081E0915D01F0915E0182FDE0
:1007100012C09081809160018F5F8F732091610181
:10072000821751F0E0916001F0E0E95BFE4F958F98
:100730008093600101C08081FF91EF919F918F9123
:100740002F910F900FBE0F901F90189590E0FC0115
:10075000EC55FF4F2491FC01E057FF4F8491882313
:1007600099F090E0880F991FFC01EA57FF4FA5917F
:10077000B491FC01E458FF4F859194918FB7F894A0
:10078000EC91E22BEC938FBF0895CF93DF931092FF
:100790004A011092490188EE93E0A0E0B0E0809316
:1007A0004B0190934C01A0934D01B0934E018CE20C
:1007B00091E0909348018093470185EC90E09093FD
:1007C00054018093530184EC90E090935601809300
:1007D000550180EC90E0909358018093570181EC93
:1007E00090E090935A018093590182EC90E09093AD
:1007F0005C0180935B0186EC90E090935E018093B6
:100800005D011092600110926101109262011092DC
:100810006301CCE0D0E0D0933502C09334028AE08B
:1008200090E090933702809336028BE090E09093B3
:1008300039028093380282E090E090933B028093EB
:100840003A028CE00E94A603809136020E94A60321
:10085000809138020E94A60361E0809138020E94D4
:100860008700D0933502C0933402E4EFF1E0119297
:1008700082E0E433F807D9F7C0E0D0E080913A0293
:1008800090913B02C817D90794F540E06FE0CE0184
:100890000E944302D7FD0CC080913A0290913B0226
:1008A000C817D9072CF447E06BE0CE010E94430241
:1008B00040E069E0CE010E944302D7FD16C080915E
:1008C0003A0290913B02C817D9071CF4CE010E944E
:1008D000AA0280913A0290913B02C817D9072CF4E2
:1008E00040E06CE0CE010E9443022196C7CFDF9129
:1008F000CF910895789484B5826084BD84B5816079
:1009000084BD85B5826085BD85B5816085BD8091DA
:100910006E00816080936E00109281008091810052
:10092000826080938100809181008160809381004A
:10093000809180008160809380008091B10084600C
:100940008093B1008091B00081608093B00080916D
:100950007A00846080937A0080917A00826080932C
:100960007A0080917A00816080937A0080917A0089
:10097000806880937A001092C100E0915701F09155
:10098000580182E08083E0915301F091540110827C
:10099000E0915501F09156018FEC808310925F0138
:1009A000E0915B01F0915C0186E08083E091590168
:1009B000F0915A01808180618083E0915901F0912A
:1009C0005A01808188608083E0915901F0915A0139
:1009D000808180688083E0915901F0915A01808183
:1009E0008F7D808380913A0290913B021816190600
:1009F00034F441E06CE080E090E00E94430280919A
:100A00003A0290913B02029734F041E06CE081E0C1
:100A100090E00E94430261E070E080E090E00E947C
:100A2000CA0261E070E081E090E00E94CA02809119
:100A30003A0290913B021816190624F480E090E0E7
:100A40000E94AA0280913A0290913B02029724F000
:100A500081E090E00E94AA0280913C0190913D01CA
:100A6000009709F472C020913A0130913B012F5F49
:100A70003F4F2431310529F030933B0120933A0157
:100A800004C010923B0110923A01019790933D01EE
:100A900080933C0161E070E080E090E00E94CA0237
:100AA00061E070E081E090E00E94CA0288E091E09D
:100AB0000E94DB0262E370E080E090E00E94F900B7
:100AC00065E070E080E090E00E94CA0265E070E0BE
:100AD00081E090E00E94CA0280E191E00E94DB0286
:100AE00062E370E080E090E00E94F90067E070E06F
:100AF00080E090E00E94CA0267E070E081E090E050
:100B00000E94CA0288E191E00E94DB0264E670E084
:100B100080E090E00E94F90060E070E080E090E00A
:100B20000E94CA0260E070E081E090E00E94CA0288
:100B300080E091E00E94DB0260E273E080E090E000
:100B40000E94F9000E94390287CF60E070E080E0E7
:100B500090E00E94CA0260E070E081E090E00E94B4
:100B6000CA0280E291E00E94DB02ECCFEE0FFF1F91
:100B70000590F491E02D099481E090E0F8940C94B4
:060B8000C105F894FFCF4F
:100B86006699818142241800669981995A24180031
:100B96006699BDBD7E24180066FFFFFF7E3C1800E7
:100BA600669981814224180000000000CA013301C1
:0A0BB6006101170292017001840131
:107E0000112484B714BE81FFF0D085E080938100F7
:107E100082E08093C00088E18093C10086E0809377
:107E2000C20080E18093C4008EE0C9D0259A86E02C
:107E300020E33CEF91E0309385002093840096BBD3
:107E4000B09BFECF1D9AA8958150A9F7CC24DD24C4
:107E500088248394B5E0AB2EA1E19A2EF3E0BF2EE7
:107E6000A2D0813461F49FD0082FAFD0023811F036
:107E7000013811F484E001C083E08DD089C08234E0
:107E800011F484E103C0853419F485E0A6D080C0E4
:107E9000853579F488D0E82EFF2485D0082F10E0AE
:107EA000102F00270E291F29000F111F8ED06801E7
:107EB0006FC0863521F484E090D080E0DECF843638
:107EC00009F040C070D06FD0082F6DD080E0C81688
:107ED00080E7D80618F4F601B7BEE895C0E0D1E017
:107EE00062D089930C17E1F7F0E0CF16F0E7DF06D8
:107EF00018F0F601B7BEE89568D007B600FCFDCFD4
:107F0000A601A0E0B1E02C9130E011968C91119780
:107F100090E0982F8827822B932B1296FA010C0160
:107F200087BEE89511244E5F5F4FF1E0A038BF0790
:107F300051F7F601A7BEE89507B600FCFDCF97BE46
:107F4000E89526C08437B1F42ED02DD0F82E2BD052
:107F50003CD0F601EF2C8F010F5F1F4F84911BD097
:107F6000EA94F801C1F70894C11CD11CFA94CF0C13
:107F7000D11C0EC0853739F428D08EE10CD085E9AC
:107F80000AD08FE07ACF813511F488E018D01DD067
:107F900080E101D065CF982F8091C00085FFFCCF94
:107FA0009093C60008958091C00087FFFCCF809118
:107FB000C00084FD01C0A8958091C6000895E0E648
:107FC000F0E098E1908380830895EDDF803219F02E
:107FD00088E0F5DFFFCF84E1DECF1F93182FE3DFCA
:107FE0001150E9F7F2DF1F91089580E0E8DFEE27F6
:047FF000FF270994CA
:027FFE00040479
:0400000300007E007B
:00000001FF
